:0400000508000000EF
:020000040800F2
:1000000020040020FD000008010100080301000891
:1000100005010008070100080901000800000000B0
:100020000000000000000000000000000B010008BC
:100030000D010008000000000F0100081101000878
:100040001301000813010008130100081301000840
:100050001301000813010008130100081301000830
:100060001301000813010008130100081301000820
:100070001301000813010008130100081301000810
:100080001301000813010008130100081301000800
:1000900013010008130100081301000813010008F0
:1000A00013010008130100081301000813010008E0
:1000B00013010008130100081301000813010008D0
:1000C00013010008130100081301000813010008C0
:1000D00013010008B1020008130100081301000811
:1000E000130100081301000813010008DFF804D011
:1000F00000F0C0F920040020004700000548004738
:10010000FEE7FEE7FEE7FEE7FEE7FEE7FEE7FEE7C7
:10011000FEE7FEE7ED00000810B500BF12204A49D7
:10012000086000BF00BF4948494948604948086025
:1001300000BF00BF00BF4648006810F4003FFAD07F
:1001400000BF4348006810F0007FFAD000BF40486D
:10015000406800F00C000828F9D100BF00F005F855
:1001600010BD3D4870473D4870473948806940F0B0
:100170000100374988613A48406820F00400384956
:10018000486000BF3248806940F00400304988610F
:100190003448006820F47F603149C1F804080846FB
:1001A000D0F8040840F0B000C1F804080846D0F8C0
:1001B000040840F48060C1F804082548806940F4D0
:1001C00080402349886140F271202749088000203F
:1001D0002649A1F80C08A1F810080846B0F80C0848
:1001E0002149091D088000202049A1F8140808466B
:1001F000B0F80C0840F00C00A1F80C080846B0F864
:100200000C0840F0A000A1F80C080846B0F810084F
:10021000A1F810080846B0F81408A1F814084FF027
:10022000E020D0F8040140F020004FF0E021C1F8B8
:1002300004010E48B0F80C0840F400500B49A1F836
:100240000C0800BF00BF70470020024002841D0060
:1002500000100240820001010051250200A24A0460
:10026000000001400408014008380140003001400E
:1002700070B504460D46204600F070F870BD70B5AC
:10028000054600BF00F090F80446601CFAD02046F6
:1002900000F064F8204670BD10B50446204600F01A
:1002A0005DF810BD01464FF0FF30704700BFFEE71C
:1002B00010B5544A108810F0200F19D0514A1288F6
:1002C00022F02002504BA3F800285049D1E9002326
:1002D000D21A32F0FF020BD14A4A121D1288D3B251
:1002E0000A68D4B201F1080213550A68521C0A6068
:1002F00010F0800F25D0434A128822F08002424B32
:10030000A3F800284249D1E900239A420ED04A6856
:10031000D3B201F10802D25C3A4B1B1D1A804A6825
:10032000521C4A6000223B4B1A600AE00122394B02
:100330001A60344A0C32128822F08002324BA3F841
:100340000C2810BD00203249086048600120314966
:10035000086000202D4908604860704710B50246CB
:100360002B49084600680B465B68C01A80B2FF281C
:1003700002DD4FF0FF3010BD0868C4B201F1080083
:1003800002550868401C08602248006850B10020EF
:10039000204B18601B480C30008840F080001A4B3E
:1003A000A3F80C080020E6E71849084600680A464A
:1003B0005268801A0004000C02D14FF0FF307047E1
:1003C0004A68501CD2B2486001F10800805CF6E730
:1003D00010B5FFF7B7FFFFF79FFE0FA000F060F822
:1003E0000EE017A000F05CF8194800F041F8C4B224
:1003F00018A000F055F8214617A000F051F800BFF2
:10040000EFE7000000380140003001400C00002000
:100410001401002008000020496E74657272757026
:10042000742064726976656E2053657269616C2010
:10043000492F4F204578616D706C650D0A0D0A00DB
:1004400050726573732061206B65792E2000000067
:10045000040000200D0A0000596F7520707265734A
:1004600073656420272563272E0D0A0D0A000000FE
:10047000FFF705BF074C084D06E0E06840F00103B8
:1004800094E8070098471034AC42F6D30348FFF7CE
:1004900033FE0000A4050008C4050008D1030008CD
:1004A0000FB410B503A9044B044A029800F017F8E2
:1004B00010BC5DF814FB0000710200080000002071
:1004C00002E008C8121F08C1002AFAD1704770471D
:1004D000002001E001C1121F002AFBD170472DE965
:1004E000F84F0546924699468846002750E0252851
:1004F00054D1002215F8010F11462E2816D115F8F7
:10050000010F04222A280AD158F8041B6D1C0DE0A3
:1005100001EB810104EB410101446D1C01E06FF02E
:100520002F042878A0F13003092BF1D9287890B353
:1005300063280AD0732831D158F8046B4FF0FF308C
:1005400052074FF0000413D50AE058F8040B8DF859
:10055000000000208DF801006E460120F0E7641CC9
:100560008C420CDA8442FADB325D002AF7D106E0D5
:1005700000E0641C8442FCDB315D0029F9D1274492
:1005800003E016F8010B5146C847641EF9D26D1CF2
:1005900028780028ABD13846BDE8F88F5146C847C7
:1005A0007F1CF4E7C4050008000000200C000000D8
:1005B000C0040008D00500080C000020140400004E
:1005C000D00400080000000000000000010000004E
:00000001FF
