:0400000508000000EF
:020000040800F2
:1000000008020020FD0000080101000803010008AB
:1000100005010008070100080901000800000000B0
:100020000000000000000000000000000B010008BC
:100030000D010008000000000F0100081101000878
:100040001301000813010008130100081301000840
:100050001301000813010008130100081301000830
:100060001301000813010008130100081301000820
:100070001301000813010008130100081301000810
:100080001301000813010008130100081301000800
:1000900013010008130100081301000813010008F0
:1000A00013010008250200081301000813010008CD
:1000B00013010008130100081301000813010008D0
:1000C00013010008130100081301000813010008C0
:1000D00013010008130100081301000813010008B0
:1000E000130100081301000813010008DFF804D011
:1000F00000F0EEF808020020004700000548004725
:10010000FEE7FEE7FEE7FEE7FEE7FEE7FEE7FEE7C7
:10011000FEE7FEE7ED00000800BF12203749086047
:1001200000BF00BF3648374948603748086000BF05
:1001300000BF00BF3348006810F4003FFAD000BF92
:100140003048006810F0007FFAD000BF2D484068AA
:1001500000F00C000828F9D100BF00BF29488069D1
:1001600040F400602749886140F267102749088001
:100170004CF24F302649A1F82C0C002023490831BD
:100180000880224928390880091D088000BF00BF67
:1001900001201E491C3908804FF0E020D0F80001F2
:1001A00040F000704FF0E021C1F800011848B0F8AD
:1001B000000C40F0010015492839088000BF00BF3D
:1001C00000BF00BF00BF00BF00BF0E48806940F005
:1001D00008000C49886100200E4908604FF0333058
:1001E0000D49C1F8040C00BF00BF00BF00BF00BF35
:1001F00000BF704709487047094870470020024017
:1002000002841D000010024082000101282C0140E0
:1002100000200140000C0140000001400051250277
:1002200000A24A042448008810F0010F32D023486D
:10023000006810B90120224908602048006807289A
:1002400003D14FF0FF301E4908601E4802681B486A
:1002500000680830012181408A431B48C0F80C2CFB
:10026000164800681649096808441449086015488A
:100270000168124802680832012090400143124888
:10028000C0F80C1C1148B0F8100C20F001000F4908
:10029000A1F8100C704710B5FFF73EFF0948006841
:1002A00006490968083101228A4010430649C1F80D
:1002B0000C0C00BFFEE70000102C014000000020E5
:1002C000040000200C0C014000000140002001400F
:1002D000074C084D06E0E06840F0010394E8070091
:1002E00098471034AC42F6D30348FFF705FF0000EF
:1002F0001C0300083C0300089702000802E008C83D
:10030000121F08C1002AFAD170477047002001E08F
:1003100001C1121F002AFBD1704700003C030008F6
:100320000000002008000000FC0200084403000850
:1003300008000020000200000C030008000000007C
:0403400001000000B8
:00000001FF
